{
  "_format": "hh-sol-artifact-1",
  "contractName": "Voting",
  "sourceName": "contracts/voting.sol",
  "abi": [
    {
      "inputs": [],
      "stateMutability": "nonpayable",
      "type": "constructor"
    },
    {
      "anonymous": false,
      "inputs": [
        {
          "indexed": false,
          "internalType": "uint256",
          "name": "candidateId",
          "type": "uint256"
        },
        {
          "indexed": false,
          "internalType": "uint256",
          "name": "age",
          "type": "uint256"
        },
        {
          "indexed": false,
          "internalType": "string",
          "name": "name",
          "type": "string"
        },
        {
          "indexed": false,
          "internalType": "uint256",
          "name": "voteCount",
          "type": "uint256"
        },
        {
          "indexed": false,
          "internalType": "address",
          "name": "candidateAddress",
          "type": "address"
        }
      ],
      "name": "CandidateCreate",
      "type": "event"
    },
    {
      "anonymous": false,
      "inputs": [
        {
          "indexed": false,
          "internalType": "uint256",
          "name": "id",
          "type": "uint256"
        },
        {
          "indexed": false,
          "internalType": "string",
          "name": "name",
          "type": "string"
        },
        {
          "indexed": false,
          "internalType": "address",
          "name": "voterAddress",
          "type": "address"
        },
        {
          "indexed": false,
          "internalType": "uint256",
          "name": "voterAllowed",
          "type": "uint256"
        },
        {
          "indexed": false,
          "internalType": "bool",
          "name": "voterVoted",
          "type": "bool"
        },
        {
          "indexed": false,
          "internalType": "uint256",
          "name": "votes",
          "type": "uint256"
        }
      ],
      "name": "VoterCreate",
      "type": "event"
    },
    {
      "inputs": [
        {
          "internalType": "uint256",
          "name": "",
          "type": "uint256"
        }
      ],
      "name": "candidateAddress",
      "outputs": [
        {
          "internalType": "address",
          "name": "",
          "type": "address"
        }
      ],
      "stateMutability": "view",
      "type": "function"
    },
    {
      "inputs": [],
      "name": "candidateId",
      "outputs": [
        {
          "internalType": "uint256",
          "name": "",
          "type": "uint256"
        }
      ],
      "stateMutability": "view",
      "type": "function"
    },
    {
      "inputs": [
        {
          "internalType": "address",
          "name": "",
          "type": "address"
        }
      ],
      "name": "candidates",
      "outputs": [
        {
          "internalType": "uint256",
          "name": "candidateId",
          "type": "uint256"
        },
        {
          "internalType": "uint256",
          "name": "age",
          "type": "uint256"
        },
        {
          "internalType": "string",
          "name": "name",
          "type": "string"
        },
        {
          "internalType": "uint256",
          "name": "voteCount",
          "type": "uint256"
        },
        {
          "internalType": "address",
          "name": "_candidateAddress",
          "type": "address"
        }
      ],
      "stateMutability": "view",
      "type": "function"
    },
    {
      "inputs": [
        {
          "internalType": "address",
          "name": "_candidateAddress",
          "type": "address"
        }
      ],
      "name": "getCandidateData",
      "outputs": [
        {
          "internalType": "uint256",
          "name": "",
          "type": "uint256"
        },
        {
          "internalType": "string",
          "name": "",
          "type": "string"
        },
        {
          "internalType": "uint256",
          "name": "",
          "type": "uint256"
        },
        {
          "internalType": "uint256",
          "name": "",
          "type": "uint256"
        },
        {
          "internalType": "address",
          "name": "",
          "type": "address"
        }
      ],
      "stateMutability": "view",
      "type": "function"
    },
    {
      "inputs": [],
      "name": "getCandidateLength",
      "outputs": [
        {
          "internalType": "uint256",
          "name": "",
          "type": "uint256"
        }
      ],
      "stateMutability": "view",
      "type": "function"
    },
    {
      "inputs": [],
      "name": "getCandidates",
      "outputs": [
        {
          "internalType": "address[]",
          "name": "",
          "type": "address[]"
        }
      ],
      "stateMutability": "view",
      "type": "function"
    },
    {
      "inputs": [],
      "name": "getVoteList",
      "outputs": [
        {
          "internalType": "address[]",
          "name": "",
          "type": "address[]"
        }
      ],
      "stateMutability": "view",
      "type": "function"
    },
    {
      "inputs": [],
      "name": "getVotedList",
      "outputs": [
        {
          "internalType": "address[]",
          "name": "",
          "type": "address[]"
        }
      ],
      "stateMutability": "view",
      "type": "function"
    },
    {
      "inputs": [
        {
          "internalType": "address",
          "name": "_candidateAddress",
          "type": "address"
        }
      ],
      "name": "getVoterData",
      "outputs": [
        {
          "internalType": "uint256",
          "name": "",
          "type": "uint256"
        },
        {
          "internalType": "string",
          "name": "",
          "type": "string"
        },
        {
          "internalType": "address",
          "name": "",
          "type": "address"
        },
        {
          "internalType": "uint256",
          "name": "",
          "type": "uint256"
        },
        {
          "internalType": "uint256",
          "name": "",
          "type": "uint256"
        },
        {
          "internalType": "bool",
          "name": "",
          "type": "bool"
        }
      ],
      "stateMutability": "view",
      "type": "function"
    },
    {
      "inputs": [],
      "name": "getVoterLength",
      "outputs": [
        {
          "internalType": "uint256",
          "name": "",
          "type": "uint256"
        }
      ],
      "stateMutability": "view",
      "type": "function"
    },
    {
      "inputs": [
        {
          "internalType": "uint256",
          "name": "_age",
          "type": "uint256"
        },
        {
          "internalType": "string",
          "name": "_name",
          "type": "string"
        },
        {
          "internalType": "address",
          "name": "_candidateAddress",
          "type": "address"
        }
      ],
      "name": "setCandidate",
      "outputs": [],
      "stateMutability": "nonpayable",
      "type": "function"
    },
    {
      "inputs": [
        {
          "internalType": "address",
          "name": "_candidateAddress",
          "type": "address"
        },
        {
          "internalType": "uint256",
          "name": "_candidateVoteId",
          "type": "uint256"
        }
      ],
      "name": "vote",
      "outputs": [],
      "stateMutability": "nonpayable",
      "type": "function"
    },
    {
      "inputs": [
        {
          "internalType": "uint256",
          "name": "",
          "type": "uint256"
        }
      ],
      "name": "votedVoters",
      "outputs": [
        {
          "internalType": "address",
          "name": "",
          "type": "address"
        }
      ],
      "stateMutability": "view",
      "type": "function"
    },
    {
      "inputs": [],
      "name": "voterId",
      "outputs": [
        {
          "internalType": "uint256",
          "name": "",
          "type": "uint256"
        }
      ],
      "stateMutability": "view",
      "type": "function"
    },
    {
      "inputs": [
        {
          "internalType": "string",
          "name": "name",
          "type": "string"
        },
        {
          "internalType": "address",
          "name": "voterAddress",
          "type": "address"
        }
      ],
      "name": "voterRight",
      "outputs": [],
      "stateMutability": "nonpayable",
      "type": "function"
    },
    {
      "inputs": [
        {
          "internalType": "address",
          "name": "",
          "type": "address"
        }
      ],
      "name": "voters",
      "outputs": [
        {
          "internalType": "uint256",
          "name": "id",
          "type": "uint256"
        },
        {
          "internalType": "string",
          "name": "name",
          "type": "string"
        },
        {
          "internalType": "address",
          "name": "voterAddress",
          "type": "address"
        },
        {
          "internalType": "uint256",
          "name": "voterAllowed",
          "type": "uint256"
        },
        {
          "internalType": "uint256",
          "name": "votes",
          "type": "uint256"
        },
        {
          "internalType": "bool",
          "name": "voterVoted",
          "type": "bool"
        }
      ],
      "stateMutability": "view",
      "type": "function"
    },
    {
      "inputs": [
        {
          "internalType": "uint256",
          "name": "",
          "type": "uint256"
        }
      ],
      "name": "votersAddress",
      "outputs": [
        {
          "internalType": "address",
          "name": "",
          "type": "address"
        }
      ],
      "stateMutability": "view",
      "type": "function"
    },
    {
      "inputs": [],
      "name": "votingOrganiser",
      "outputs": [
        {
          "internalType": "address",
          "name": "",
          "type": "address"
        }
      ],
      "stateMutability": "view",
      "type": "function"
    }
  ],
  "bytecode": "0x608060405234801561001057600080fd5b5033600260006101000a81548173ffffffffffffffffffffffffffffffffffffffff021916908373ffffffffffffffffffffffffffffffffffffffff160217905550611fb7806100616000396000f3fe608060405234801561001057600080fd5b50600436106101165760003560e01c80635f74bbde116100a25780638fb4cd80116100715780638fb4cd80146102fd5780639f91e6bf14610332578063a3ec138d14610350578063cd948ab714610385578063f7522a83146103a357610116565b80635f74bbde146102615780636b826d9f1461027d5780637831ffb3146102995780638ab66a90146102c957610116565b80633970afa9116100e95780633970afa9146101a75780633a03ca43146101c55780633a88251a146101e357806343242daa1461021357806358f17f831461024357610116565b806305ad45a41461011b57806306a49fce146101395780632a466ac714610157578063333234981461018b575b600080fd5b6101236103c1565b6040516101309190611304565b60405180910390f35b6101416103ce565b60405161014e919061140f565b60405180910390f35b610171600480360381019061016c9190611471565b61045c565b60405161018295949392919061153d565b60405180910390f35b6101a560048036038101906101a091906116f8565b610672565b005b6101af61087e565b6040516101bc919061140f565b60405180910390f35b6101cd61090c565b6040516101da919061140f565b60405180910390f35b6101fd60048036038101906101f89190611767565b61099a565b60405161020a9190611794565b60405180910390f35b61022d60048036038101906102289190611767565b6109d9565b60405161023a9190611794565b60405180910390f35b61024b610a18565b6040516102589190611304565b60405180910390f35b61027b600480360381019061027691906117af565b610a1e565b005b610297600480360381019061029291906117ef565b610be5565b005b6102b360048036038101906102ae9190611767565b610e3b565b6040516102c09190611794565b60405180910390f35b6102e360048036038101906102de9190611471565b610e7a565b6040516102f495949392919061184b565b60405180910390f35b61031760048036038101906103129190611471565b610f58565b604051610329969594939291906118c0565b60405180910390f35b61033a6111c1565b6040516103479190611304565b60405180910390f35b61036a60048036038101906103659190611471565b6111c7565b60405161037c969594939291906118c0565b60405180910390f35b61038d6112b8565b60405161039a9190611794565b60405180910390f35b6103ab6112de565b6040516103b89190611304565b60405180910390f35b6000600580549050905090565b6060600380548060200260200160405190810160405280929190818152602001828054801561045257602002820191906000526020600020905b8160009054906101000a900473ffffffffffffffffffffffffffffffffffffffff1673ffffffffffffffffffffffffffffffffffffffff1681526020019060010190808311610408575b5050505050905090565b600060606000806000600460008773ffffffffffffffffffffffffffffffffffffffff1673ffffffffffffffffffffffffffffffffffffffff16815260200190815260200160002060000154600460008873ffffffffffffffffffffffffffffffffffffffff1673ffffffffffffffffffffffffffffffffffffffff168152602001908152602001600020600201600460008973ffffffffffffffffffffffffffffffffffffffff1673ffffffffffffffffffffffffffffffffffffffff16815260200190815260200160002060010154600460008a73ffffffffffffffffffffffffffffffffffffffff1673ffffffffffffffffffffffffffffffffffffffff16815260200190815260200160002060030154600460008b73ffffffffffffffffffffffffffffffffffffffff1673ffffffffffffffffffffffffffffffffffffffff16815260200190815260200160002060040160009054906101000a900473ffffffffffffffffffffffffffffffffffffffff168380546105df90611957565b80601f016020809104026020016040519081016040528092919081815260200182805461060b90611957565b80156106585780601f1061062d57610100808354040283529160200191610658565b820191906000526020600020905b81548152906001019060200180831161063b57829003601f168201915b505050505093509450945094509450945091939590929450565b3373ffffffffffffffffffffffffffffffffffffffff16600260009054906101000a900473ffffffffffffffffffffffffffffffffffffffff1673ffffffffffffffffffffffffffffffffffffffff1614610702576040517f08c379a00000000000000000000000000000000000000000000000000000000081526004016106f9906119fa565b60405180910390fd5b6001600081548092919061071590611a49565b91905055506000600460008373ffffffffffffffffffffffffffffffffffffffff1673ffffffffffffffffffffffffffffffffffffffff16815260200190815260200160002090506001548160000181905550838160010181905550828160020190816107829190611c3d565b5060008160030181905550818160040160006101000a81548173ffffffffffffffffffffffffffffffffffffffff021916908373ffffffffffffffffffffffffffffffffffffffff1602179055506003829080600181540180825580915050600190039060005260206000200160009091909190916101000a81548173ffffffffffffffffffffffffffffffffffffffff021916908373ffffffffffffffffffffffffffffffffffffffff1602179055507f38a91173cd75831f0f78ffbaffc3fe2dd8f3d055c162c145f2d3023797749852600154858584600301548660405161087095949392919061184b565b60405180910390a150505050565b6060600580548060200260200160405190810160405280929190818152602001828054801561090257602002820191906000526020600020905b8160009054906101000a900473ffffffffffffffffffffffffffffffffffffffff1673ffffffffffffffffffffffffffffffffffffffff16815260200190600101908083116108b8575b5050505050905090565b6060600680548060200260200160405190810160405280929190818152602001828054801561099057602002820191906000526020600020905b8160009054906101000a900473ffffffffffffffffffffffffffffffffffffffff1673ffffffffffffffffffffffffffffffffffffffff1681526020019060010190808311610946575b5050505050905090565b600381815481106109aa57600080fd5b906000526020600020016000915054906101000a900473ffffffffffffffffffffffffffffffffffffffff1681565b600681815481106109e957600080fd5b906000526020600020016000915054906101000a900473ffffffffffffffffffffffffffffffffffffffff1681565b60005481565b6000600760003373ffffffffffffffffffffffffffffffffffffffff1673ffffffffffffffffffffffffffffffffffffffff16815260200190815260200160002090508060050160009054906101000a900460ff1615610ab3576040517f08c379a0000000000000000000000000000000000000000000000000000000008152600401610aaa90611d5b565b60405180910390fd5b6000816003015403610afa576040517f08c379a0000000000000000000000000000000000000000000000000000000008152600401610af190611dc7565b60405180910390fd5b60018160050160006101000a81548160ff0219169083151502179055508181600401819055506005339080600181540180825580915050600190039060005260206000200160009091909190916101000a81548173ffffffffffffffffffffffffffffffffffffffff021916908373ffffffffffffffffffffffffffffffffffffffff1602179055508060030154600460008573ffffffffffffffffffffffffffffffffffffffff1673ffffffffffffffffffffffffffffffffffffffff1681526020019081526020016000206003016000828254610bd99190611de7565b92505081905550505050565b3373ffffffffffffffffffffffffffffffffffffffff16600260009054906101000a900473ffffffffffffffffffffffffffffffffffffffff1673ffffffffffffffffffffffffffffffffffffffff1614610c75576040517f08c379a0000000000000000000000000000000000000000000000000000000008152600401610c6c90611e8d565b60405180910390fd5b600080815480929190610c8790611a49565b91905055506000600760008373ffffffffffffffffffffffffffffffffffffffff1673ffffffffffffffffffffffffffffffffffffffff16815260200190815260200160002090506000816003015414610d16576040517f08c379a0000000000000000000000000000000000000000000000000000000008152600401610d0d90611ef9565b60405180910390fd5b600054816000018190555082816001019081610d329190611c3d565b508060020160009054906101000a905050600181600301819055506103e8816004018190555060008160050160006101000a81548160ff0219169083151502179055506006829080600181540180825580915050600190039060005260206000200160009091909190916101000a81548173ffffffffffffffffffffffffffffffffffffffff021916908373ffffffffffffffffffffffffffffffffffffffff1602179055507f1e650fc0d3270ee8f693968786c0cfba79c3f6ca8d4043884672e9bf30a81efc8160000154848484600301548560050160009054906101000a900460ff168660040154604051610e2e96959493929190611f19565b60405180910390a1505050565b60058181548110610e4b57600080fd5b906000526020600020016000915054906101000a900473ffffffffffffffffffffffffffffffffffffffff1681565b6004602052806000526040600020600091509050806000015490806001015490806002018054610ea990611957565b80601f0160208091040260200160405190810160405280929190818152602001828054610ed590611957565b8015610f225780601f10610ef757610100808354040283529160200191610f22565b820191906000526020600020905b815481529060010190602001808311610f0557829003601f168201915b5050505050908060030154908060040160009054906101000a900473ffffffffffffffffffffffffffffffffffffffff16905085565b60006060600080600080600760008873ffffffffffffffffffffffffffffffffffffffff1673ffffffffffffffffffffffffffffffffffffffff16815260200190815260200160002060000154600760008973ffffffffffffffffffffffffffffffffffffffff1673ffffffffffffffffffffffffffffffffffffffff168152602001908152602001600020600101600760008a73ffffffffffffffffffffffffffffffffffffffff1673ffffffffffffffffffffffffffffffffffffffff16815260200190815260200160002060020160009054906101000a900473ffffffffffffffffffffffffffffffffffffffff16600760008b73ffffffffffffffffffffffffffffffffffffffff1673ffffffffffffffffffffffffffffffffffffffff16815260200190815260200160002060030154600760008c73ffffffffffffffffffffffffffffffffffffffff1673ffffffffffffffffffffffffffffffffffffffff16815260200190815260200160002060040154600760008d73ffffffffffffffffffffffffffffffffffffffff1673ffffffffffffffffffffffffffffffffffffffff16815260200190815260200160002060050160009054906101000a900460ff1684805461112c90611957565b80601f016020809104026020016040519081016040528092919081815260200182805461115890611957565b80156111a55780601f1061117a576101008083540402835291602001916111a5565b820191906000526020600020905b81548152906001019060200180831161118857829003601f168201915b5050505050945095509550955095509550955091939550919395565b60015481565b60076020528060005260406000206000915090508060000154908060010180546111f090611957565b80601f016020809104026020016040519081016040528092919081815260200182805461121c90611957565b80156112695780601f1061123e57610100808354040283529160200191611269565b820191906000526020600020905b81548152906001019060200180831161124c57829003601f168201915b5050505050908060020160009054906101000a900473ffffffffffffffffffffffffffffffffffffffff16908060030154908060040154908060050160009054906101000a900460ff16905086565b600260009054906101000a900473ffffffffffffffffffffffffffffffffffffffff1681565b6000600380549050905090565b6000819050919050565b6112fe816112eb565b82525050565b600060208201905061131960008301846112f5565b92915050565b600081519050919050565b600082825260208201905092915050565b6000819050602082019050919050565b600073ffffffffffffffffffffffffffffffffffffffff82169050919050565b60006113768261134b565b9050919050565b6113868161136b565b82525050565b6000611398838361137d565b60208301905092915050565b6000602082019050919050565b60006113bc8261131f565b6113c6818561132a565b93506113d18361133b565b8060005b838110156114025781516113e9888261138c565b97506113f4836113a4565b9250506001810190506113d5565b5085935050505092915050565b6000602082019050818103600083015261142981846113b1565b905092915050565b6000604051905090565b600080fd5b600080fd5b61144e8161136b565b811461145957600080fd5b50565b60008135905061146b81611445565b92915050565b6000602082840312156114875761148661143b565b5b60006114958482850161145c565b91505092915050565b600081519050919050565b600082825260208201905092915050565b60005b838110156114d85780820151818401526020810190506114bd565b60008484015250505050565b6000601f19601f8301169050919050565b60006115008261149e565b61150a81856114a9565b935061151a8185602086016114ba565b611523816114e4565b840191505092915050565b6115378161136b565b82525050565b600060a08201905061155260008301886112f5565b818103602083015261156481876114f5565b905061157360408301866112f5565b61158060608301856112f5565b61158d608083018461152e565b9695505050505050565b6115a0816112eb565b81146115ab57600080fd5b50565b6000813590506115bd81611597565b92915050565b600080fd5b600080fd5b7f4e487b7100000000000000000000000000000000000000000000000000000000600052604160045260246000fd5b611605826114e4565b810181811067ffffffffffffffff82111715611624576116236115cd565b5b80604052505050565b6000611637611431565b905061164382826115fc565b919050565b600067ffffffffffffffff821115611663576116626115cd565b5b61166c826114e4565b9050602081019050919050565b82818337600083830152505050565b600061169b61169684611648565b61162d565b9050828152602081018484840111156116b7576116b66115c8565b5b6116c2848285611679565b509392505050565b600082601f8301126116df576116de6115c3565b5b81356116ef848260208601611688565b91505092915050565b6000806000606084860312156117115761171061143b565b5b600061171f868287016115ae565b935050602084013567ffffffffffffffff8111156117405761173f611440565b5b61174c868287016116ca565b925050604061175d8682870161145c565b9150509250925092565b60006020828403121561177d5761177c61143b565b5b600061178b848285016115ae565b91505092915050565b60006020820190506117a9600083018461152e565b92915050565b600080604083850312156117c6576117c561143b565b5b60006117d48582860161145c565b92505060206117e5858286016115ae565b9150509250929050565b600080604083850312156118065761180561143b565b5b600083013567ffffffffffffffff81111561182457611823611440565b5b611830858286016116ca565b92505060206118418582860161145c565b9150509250929050565b600060a08201905061186060008301886112f5565b61186d60208301876112f5565b818103604083015261187f81866114f5565b905061188e60608301856112f5565b61189b608083018461152e565b9695505050505050565b60008115159050919050565b6118ba816118a5565b82525050565b600060c0820190506118d560008301896112f5565b81810360208301526118e781886114f5565b90506118f6604083018761152e565b61190360608301866112f5565b61191060808301856112f5565b61191d60a08301846118b1565b979650505050505050565b7f4e487b7100000000000000000000000000000000000000000000000000000000600052602260045260246000fd5b6000600282049050600182168061196f57607f821691505b60208210810361198257611981611928565b5b50919050565b7f4f6e6c7920766f74696e674f7267616e697a657220616c6c6f77656420746f2060008201527f6372656174652063616e64696461746500000000000000000000000000000000602082015250565b60006119e46030836114a9565b91506119ef82611988565b604082019050919050565b60006020820190508181036000830152611a13816119d7565b9050919050565b7f4e487b7100000000000000000000000000000000000000000000000000000000600052601160045260246000fd5b6000611a54826112eb565b91507fffffffffffffffffffffffffffffffffffffffffffffffffffffffffffffffff8203611a8657611a85611a1a565b5b600182019050919050565b60008190508160005260206000209050919050565b60006020601f8301049050919050565b600082821b905092915050565b600060088302611af37fffffffffffffffffffffffffffffffffffffffffffffffffffffffffffffffff82611ab6565b611afd8683611ab6565b95508019841693508086168417925050509392505050565b6000819050919050565b6000611b3a611b35611b30846112eb565b611b15565b6112eb565b9050919050565b6000819050919050565b611b5483611b1f565b611b68611b6082611b41565b848454611ac3565b825550505050565b600090565b611b7d611b70565b611b88818484611b4b565b505050565b5b81811015611bac57611ba1600082611b75565b600181019050611b8e565b5050565b601f821115611bf157611bc281611a91565b611bcb84611aa6565b81016020851015611bda578190505b611bee611be685611aa6565b830182611b8d565b50505b505050565b600082821c905092915050565b6000611c1460001984600802611bf6565b1980831691505092915050565b6000611c2d8383611c03565b9150826002028217905092915050565b611c468261149e565b67ffffffffffffffff811115611c5f57611c5e6115cd565b5b611c698254611957565b611c74828285611bb0565b600060209050601f831160018114611ca75760008415611c95578287015190505b611c9f8582611c21565b865550611d07565b601f198416611cb586611a91565b60005b82811015611cdd57848901518255600182019150602085019450602081019050611cb8565b86831015611cfa5784890151611cf6601f891682611c03565b8355505b6001600288020188555050505b505050505050565b7f596f75206861766520616c726561647920766f74656400000000000000000000600082015250565b6000611d456016836114a9565b9150611d5082611d0f565b602082019050919050565b60006020820190508181036000830152611d7481611d38565b9050919050565b7f596f752068617665206e6f20726967687420746f20766f746500000000000000600082015250565b6000611db16019836114a9565b9150611dbc82611d7b565b602082019050919050565b60006020820190508181036000830152611de081611da4565b9050919050565b6000611df2826112eb565b9150611dfd836112eb565b9250828201905080821115611e1557611e14611a1a565b5b92915050565b7f4f6e6c7920766f74696e674f7267616e697a657220616c6c6f77656420746f2060008201527f63726561746520766f7465720000000000000000000000000000000000000000602082015250565b6000611e77602c836114a9565b9150611e8282611e1b565b604082019050919050565b60006020820190508181036000830152611ea681611e6a565b9050919050565b7f566f74657220416c6c6f776564206e6f74207a65726f00000000000000000000600082015250565b6000611ee36016836114a9565b9150611eee82611ead565b602082019050919050565b60006020820190508181036000830152611f1281611ed6565b9050919050565b600060c082019050611f2e60008301896112f5565b8181036020830152611f4081886114f5565b9050611f4f604083018761152e565b611f5c60608301866112f5565b611f6960808301856118b1565b611f7660a08301846112f5565b97965050505050505056fea26469706673582212200734b5808e2fb83629e954bcfc1b1722e51713a8f8c0b0ea994147bf81836cf464736f6c63430008130033",
  "linkReferences": {},
  "deployedLinkReferences": {}
}